{
  "contractName": "SolnSquareVerifier",
  "abi": [
    {
      "constant": true,
      "inputs": [
        {
          "name": "interfaceId",
          "type": "bytes4"
        }
      ],
      "name": "supportsInterface",
      "outputs": [
        {
          "name": "",
          "type": "bool"
        }
      ],
      "payable": false,
      "stateMutability": "view",
      "type": "function"
    },
    {
      "constant": true,
      "inputs": [],
      "name": "name",
      "outputs": [
        {
          "name": "",
          "type": "string"
        }
      ],
      "payable": false,
      "stateMutability": "view",
      "type": "function"
    },
    {
      "constant": true,
      "inputs": [
        {
          "name": "tokenId",
          "type": "uint256"
        }
      ],
      "name": "getApproved",
      "outputs": [
        {
          "name": "",
          "type": "address"
        }
      ],
      "payable": false,
      "stateMutability": "view",
      "type": "function"
    },
    {
      "constant": false,
      "inputs": [
        {
          "name": "to",
          "type": "address"
        },
        {
          "name": "tokenId",
          "type": "uint256"
        }
      ],
      "name": "approve",
      "outputs": [],
      "payable": false,
      "stateMutability": "nonpayable",
      "type": "function"
    },
    {
      "constant": true,
      "inputs": [],
      "name": "totalSupply",
      "outputs": [
        {
          "name": "",
          "type": "uint256"
        }
      ],
      "payable": false,
      "stateMutability": "view",
      "type": "function"
    },
    {
      "constant": false,
      "inputs": [
        {
          "name": "from",
          "type": "address"
        },
        {
          "name": "to",
          "type": "address"
        },
        {
          "name": "tokenId",
          "type": "uint256"
        }
      ],
      "name": "transferFrom",
      "outputs": [],
      "payable": false,
      "stateMutability": "nonpayable",
      "type": "function"
    },
    {
      "constant": false,
      "inputs": [
        {
          "name": "_myid",
          "type": "bytes32"
        },
        {
          "name": "_result",
          "type": "string"
        }
      ],
      "name": "__callback",
      "outputs": [],
      "payable": false,
      "stateMutability": "nonpayable",
      "type": "function"
    },
    {
      "constant": true,
      "inputs": [
        {
          "name": "allegedOwner",
          "type": "address"
        }
      ],
      "name": "isOwner",
      "outputs": [
        {
          "name": "",
          "type": "bool"
        }
      ],
      "payable": false,
      "stateMutability": "view",
      "type": "function"
    },
    {
      "constant": true,
      "inputs": [
        {
          "name": "owner",
          "type": "address"
        },
        {
          "name": "index",
          "type": "uint256"
        }
      ],
      "name": "tokenOfOwnerByIndex",
      "outputs": [
        {
          "name": "",
          "type": "uint256"
        }
      ],
      "payable": false,
      "stateMutability": "view",
      "type": "function"
    },
    {
      "constant": false,
      "inputs": [
        {
          "name": "_myid",
          "type": "bytes32"
        },
        {
          "name": "_result",
          "type": "string"
        },
        {
          "name": "_proof",
          "type": "bytes"
        }
      ],
      "name": "__callback",
      "outputs": [],
      "payable": false,
      "stateMutability": "nonpayable",
      "type": "function"
    },
    {
      "constant": false,
      "inputs": [
        {
          "name": "to",
          "type": "address"
        },
        {
          "name": "tokenId",
          "type": "uint256"
        }
      ],
      "name": "mint",
      "outputs": [
        {
          "name": "",
          "type": "bool"
        }
      ],
      "payable": false,
      "stateMutability": "nonpayable",
      "type": "function"
    },
    {
      "constant": false,
      "inputs": [
        {
          "name": "from",
          "type": "address"
        },
        {
          "name": "to",
          "type": "address"
        },
        {
          "name": "tokenId",
          "type": "uint256"
        }
      ],
      "name": "safeTransferFrom",
      "outputs": [],
      "payable": false,
      "stateMutability": "nonpayable",
      "type": "function"
    },
    {
      "constant": true,
      "inputs": [
        {
          "name": "index",
          "type": "uint256"
        }
      ],
      "name": "tokenByIndex",
      "outputs": [
        {
          "name": "",
          "type": "uint256"
        }
      ],
      "payable": false,
      "stateMutability": "view",
      "type": "function"
    },
    {
      "constant": true,
      "inputs": [
        {
          "name": "tokenId",
          "type": "uint256"
        }
      ],
      "name": "ownerOf",
      "outputs": [
        {
          "name": "",
          "type": "address"
        }
      ],
      "payable": false,
      "stateMutability": "view",
      "type": "function"
    },
    {
      "constant": true,
      "inputs": [
        {
          "name": "owner",
          "type": "address"
        }
      ],
      "name": "balanceOf",
      "outputs": [
        {
          "name": "",
          "type": "uint256"
        }
      ],
      "payable": false,
      "stateMutability": "view",
      "type": "function"
    },
    {
      "constant": true,
      "inputs": [],
      "name": "symbol",
      "outputs": [
        {
          "name": "",
          "type": "string"
        }
      ],
      "payable": false,
      "stateMutability": "view",
      "type": "function"
    },
    {
      "constant": false,
      "inputs": [
        {
          "name": "to",
          "type": "address"
        },
        {
          "name": "approved",
          "type": "bool"
        }
      ],
      "name": "setApprovalForAll",
      "outputs": [],
      "payable": false,
      "stateMutability": "nonpayable",
      "type": "function"
    },
    {
      "constant": false,
      "inputs": [
        {
          "name": "from",
          "type": "address"
        },
        {
          "name": "to",
          "type": "address"
        },
        {
          "name": "tokenId",
          "type": "uint256"
        },
        {
          "name": "_data",
          "type": "bytes"
        }
      ],
      "name": "safeTransferFrom",
      "outputs": [],
      "payable": false,
      "stateMutability": "nonpayable",
      "type": "function"
    },
    {
      "constant": false,
      "inputs": [
        {
          "name": "pauseContract",
          "type": "bool"
        }
      ],
      "name": "setPause",
      "outputs": [],
      "payable": false,
      "stateMutability": "nonpayable",
      "type": "function"
    },
    {
      "constant": true,
      "inputs": [
        {
          "name": "tokenId",
          "type": "uint256"
        }
      ],
      "name": "tokenURI",
      "outputs": [
        {
          "name": "",
          "type": "string"
        }
      ],
      "payable": false,
      "stateMutability": "view",
      "type": "function"
    },
    {
      "constant": true,
      "inputs": [],
      "name": "contractOwner",
      "outputs": [
        {
          "name": "",
          "type": "address"
        }
      ],
      "payable": false,
      "stateMutability": "view",
      "type": "function"
    },
    {
      "constant": true,
      "inputs": [],
      "name": "baseTokenURI",
      "outputs": [
        {
          "name": "",
          "type": "string"
        }
      ],
      "payable": false,
      "stateMutability": "view",
      "type": "function"
    },
    {
      "constant": true,
      "inputs": [
        {
          "name": "owner",
          "type": "address"
        },
        {
          "name": "operator",
          "type": "address"
        }
      ],
      "name": "isApprovedForAll",
      "outputs": [
        {
          "name": "",
          "type": "bool"
        }
      ],
      "payable": false,
      "stateMutability": "view",
      "type": "function"
    },
    {
      "constant": false,
      "inputs": [
        {
          "name": "newOwner",
          "type": "address"
        }
      ],
      "name": "transferOwnership",
      "outputs": [],
      "payable": false,
      "stateMutability": "nonpayable",
      "type": "function"
    },
    {
      "inputs": [],
      "payable": false,
      "stateMutability": "nonpayable",
      "type": "constructor"
    },
    {
      "anonymous": false,
      "inputs": [],
      "name": "SolutionAdded",
      "type": "event"
    },
    {
      "anonymous": false,
      "inputs": [
        {
          "indexed": true,
          "name": "from",
          "type": "address"
        },
        {
          "indexed": true,
          "name": "to",
          "type": "address"
        },
        {
          "indexed": true,
          "name": "tokenId",
          "type": "uint256"
        }
      ],
      "name": "Transfer",
      "type": "event"
    },
    {
      "anonymous": false,
      "inputs": [
        {
          "indexed": true,
          "name": "owner",
          "type": "address"
        },
        {
          "indexed": true,
          "name": "approved",
          "type": "address"
        },
        {
          "indexed": true,
          "name": "tokenId",
          "type": "uint256"
        }
      ],
      "name": "Approval",
      "type": "event"
    },
    {
      "anonymous": false,
      "inputs": [
        {
          "indexed": true,
          "name": "owner",
          "type": "address"
        },
        {
          "indexed": true,
          "name": "operator",
          "type": "address"
        },
        {
          "indexed": false,
          "name": "approved",
          "type": "bool"
        }
      ],
      "name": "ApprovalForAll",
      "type": "event"
    },
    {
      "anonymous": false,
      "inputs": [],
      "name": "Paused",
      "type": "event"
    },
    {
      "anonymous": false,
      "inputs": [],
      "name": "Unpaused",
      "type": "event"
    },
    {
      "anonymous": false,
      "inputs": [
        {
          "indexed": false,
          "name": "owner",
          "type": "address"
        }
      ],
      "name": "OwnershipTransferred",
      "type": "event"
    },
    {
      "constant": false,
      "inputs": [
        {
          "components": [
            {
              "components": [
                {
                  "name": "X",
                  "type": "uint256"
                },
                {
                  "name": "Y",
                  "type": "uint256"
                }
              ],
              "name": "a",
              "type": "tuple"
            },
            {
              "components": [
                {
                  "name": "X",
                  "type": "uint256[2]"
                },
                {
                  "name": "Y",
                  "type": "uint256[2]"
                }
              ],
              "name": "b",
              "type": "tuple"
            },
            {
              "components": [
                {
                  "name": "X",
                  "type": "uint256"
                },
                {
                  "name": "Y",
                  "type": "uint256"
                }
              ],
              "name": "c",
              "type": "tuple"
            }
          ],
          "name": "proof",
          "type": "tuple"
        },
        {
          "name": "input",
          "type": "uint256[2]"
        }
      ],
      "name": "addSolution",
      "outputs": [],
      "payable": false,
      "stateMutability": "nonpayable",
      "type": "function"
    },
    {
      "constant": false,
      "inputs": [
        {
          "name": "to",
          "type": "address"
        },
        {
          "name": "tokenId",
          "type": "uint256"
        }
      ],
      "name": "mintToken",
      "outputs": [],
      "payable": false,
      "stateMutability": "nonpayable",
      "type": "function"
    }
  ],
  "bytecode": "0x6080604052604051620000129062000316565b604051809103906000f0801580156200002f573d6000803e3d6000fd5b50601360006101000a81548173ffffffffffffffffffffffffffffffffffffffff021916908373ffffffffffffffffffffffffffffffffffffffff1602179055503480156200007d57600080fd5b506040518060400160405280601181526020017f5469746c65206f662050726f70657274790000000000000000000000000000008152506040518060400160405280600381526020017f54505200000000000000000000000000000000000000000000000000000000008152506040518060600160405280603f815260200162004f62603f9139336000806101000a81548173ffffffffffffffffffffffffffffffffffffffff021916908373ffffffffffffffffffffffffffffffffffffffff1602179055507f04dba622d284ed0014ee4b9a6a68386be1a4c08a4913ae272de89199cc6861636000809054906101000a900473ffffffffffffffffffffffffffffffffffffffff16604051620001969190620003e4565b60405180910390a160008060146101000a81548160ff021916908315150217905550620001d06301ffc9a760e01b6200027460201b60201c565b620001e86380ac58cd60e01b6200027460201b60201c565b6200020063780e9d6360e01b6200027460201b60201c565b82600f90805190602001906200021892919062000324565b5081601090805190602001906200023192919062000324565b5080601190805190602001906200024a92919062000324565b5062000263635b5e139f60e01b6200027460201b60201c565b505050600060148190555062000435565b63ffffffff60e01b817bffffffffffffffffffffffffffffffffffffffffffffffffffffffff191614151515620002aa57600080fd5b6001806000837bffffffffffffffffffffffffffffffffffffffffffffffffffffffff19167bffffffffffffffffffffffffffffffffffffffffffffffffffffffff1916815260200190815260200160002060006101000a81548160ff02191690831515021790555050565b61115f8062003e0383390190565b828054600181600116156101000203166002900490600052602060002090601f016020900481019282601f106200036757805160ff191683800117855562000398565b8280016001018555821562000398579182015b82811115620003975782518255916020019190600101906200037a565b5b509050620003a79190620003ab565b5090565b620003d091905b80821115620003cc576000816000905550600101620003b2565b5090565b90565b620003de8162000401565b82525050565b6000602082019050620003fb6000830184620003d3565b92915050565b60006200040e8262000415565b9050919050565b600073ffffffffffffffffffffffffffffffffffffffff82169050919050565b6139be80620004456000396000f3fe608060405234801561001057600080fd5b506004361061018e5760003560e01c80636352211e116100de578063b88d4fde11610097578063ce606ee011610071578063ce606ee0146104b5578063d547cfb7146104d3578063e985e9c5146104f1578063f2fde38b146105215761018e565b8063b88d4fde1461044d578063bedb86fb14610469578063c87b56dd146104855761018e565b80636352211e1461037b5780636977bc84146103ab57806370a08231146103c757806379c65068146103f757806395d89b4114610413578063a22cb465146104315761018e565b806327dc297e1161014b57806338bbfa501161012557806338bbfa50146102e357806340c10f19146102ff57806342842e0e1461032f5780634f6ccce71461034b5761018e565b806327dc297e146102675780632f54bf6e146102835780632f745c59146102b35761018e565b806301ffc9a71461019357806306fdde03146101c3578063081812fc146101e1578063095ea7b31461021157806318160ddd1461022d57806323b872dd1461024b575b600080fd5b6101ad60048036036101a89190810190612f47565b61053d565b6040516101ba919061354c565b60405180910390f35b6101cb6105a5565b6040516101d89190613567565b60405180910390f35b6101fb60048036036101f69190810190612fd7565b610647565b60405161020891906134e5565b60405180910390f35b61022b60048036036102269190810190612de6565b610684565b005b61023561089a565b60405161024291906136d4565b60405180910390f35b61026560048036036102609190810190612ce0565b6108a7565b005b610281600480360361027c9190810190612e74565b6108cc565b005b61029d60048036036102989190810190612c7b565b61090f565b6040516102aa919061354c565b60405180910390f35b6102cd60048036036102c89190810190612de6565b610968565b6040516102da91906136d4565b60405180910390f35b6102fd60048036036102f89190810190612ec8565b6109df565b005b61031960048036036103149190810190612de6565b6109e4565b604051610326919061354c565b60405180910390f35b61034960048036036103449190810190612ce0565b610a94565b005b61036560048036036103609190810190612fd7565b610ab4565b60405161037291906136d4565b60405180910390f35b61039560048036036103909190810190612fd7565b610aec565b6040516103a291906134e5565b60405180910390f35b6103c560048036036103c09190810190612f99565b610b29565b005b6103e160048036036103dc9190810190612c7b565b610ce6565b6040516103ee91906136d4565b60405180910390f35b610411600480360361040c9190810190612de6565b610d36565b005b61041b610fb6565b6040516104289190613567565b60405180910390f35b61044b60048036036104469190810190612daa565b611058565b005b61046760048036036104629190810190612d2f565b611190565b005b610483600480360361047e9190810190612e22565b6111b8565b005b61049f600480360361049a9190810190612fd7565b6112d9565b6040516104ac9190613567565b60405180910390f35b6104bd6113a2565b6040516104ca91906134e5565b60405180910390f35b6104db6113cb565b6040516104e89190613567565b60405180910390f35b61050b60048036036105069190810190612ca4565b61146d565b604051610518919061354c565b60405180910390f35b61053b60048036036105369190810190612c7b565b611501565b005b600060016000837bffffffffffffffffffffffffffffffffffffffffffffffffffffffff19167bffffffffffffffffffffffffffffffffffffffffffffffffffffffff1916815260200190815260200160002060009054906101000a900460ff169050919050565b6060600f8054600181600116156101000203166002900480601f01602080910402602001604051908101604052809291908181526020018280546001816001161561010002031660029004801561063d5780601f106106125761010080835404028352916020019161063d565b820191906000526020600020905b81548152906001019060200180831161062057829003601f168201915b5050505050905090565b60006003600083815260200190815260200160002060009054906101000a900473ffffffffffffffffffffffffffffffffffffffff169050919050565b8173ffffffffffffffffffffffffffffffffffffffff166002600083815260200190815260200160002060009054906101000a900473ffffffffffffffffffffffffffffffffffffffff1673ffffffffffffffffffffffffffffffffffffffff1614151515610728576040517f08c379a000000000000000000000000000000000000000000000000000000000815260040161071f90613649565b60405180910390fd5b6107313361090f565b8061077557506107746002600083815260200190815260200160002060009054906101000a900473ffffffffffffffffffffffffffffffffffffffff163361146d565b5b15156107b6576040517f08c379a00000000000000000000000000000000000000000000000000000000081526004016107ad906135c9565b60405180910390fd5b816003600083815260200190815260200160002060006101000a81548173ffffffffffffffffffffffffffffffffffffffff021916908373ffffffffffffffffffffffffffffffffffffffff160217905550808273ffffffffffffffffffffffffffffffffffffffff166002600084815260200190815260200160002060009054906101000a900473ffffffffffffffffffffffffffffffffffffffff1673ffffffffffffffffffffffffffffffffffffffff167f8c5be1e5ebec7d5bd14f71427d1e84f3dd0314c0f7b2291e5b200ac8c7c3b92560405160405180910390a45050565b6000600880549050905090565b6108b1338261169f565b15156108bc57600080fd5b6108c7838383611734565b505050565b61090b828260006040519080825280601f01601f1916602001820160405280156109055781602001600182028038833980820191505090505b506109df565b5050565b60008173ffffffffffffffffffffffffffffffffffffffff166000809054906101000a900473ffffffffffffffffffffffffffffffffffffffff1673ffffffffffffffffffffffffffffffffffffffff16149050919050565b600061097383610ce6565b8210151561098057600080fd5b600660008473ffffffffffffffffffffffffffffffffffffffff1673ffffffffffffffffffffffffffffffffffffffff168152602001908152602001600020828154811015156109cc57fe5b9060005260206000200154905092915050565b505050565b60008060009054906101000a900473ffffffffffffffffffffffffffffffffffffffff1673ffffffffffffffffffffffffffffffffffffffff163373ffffffffffffffffffffffffffffffffffffffff16141515610a77576040517f08c379a0000000000000000000000000000000000000000000000000000000008152600401610a6e906135a9565b60405180910390fd5b610a818383611758565b610a8a82611779565b6001905092915050565b610aaf83838360405180602001604052806000815250611190565b505050565b6000610abe61089a565b82101515610acb57600080fd5b600882815481101515610ada57fe5b90600052602060002001549050919050565b60006002600083815260200190815260200160002060009054906101000a900473ffffffffffffffffffffffffffffffffffffffff169050919050565b601460008154809291906001019190505550610b43612752565b6040518060600160405280604051806040016040528086815260200185815250815260200160145481526020013373ffffffffffffffffffffffffffffffffffffffff1681525090506015819080600181540180825580915050906001820390600052602060002090600c02016000909192909190915060008201518160000160008201518160000160008201518160000160008201518160000155602082015181600101555050602082015181600201600082015181600001906002610c0b929190612790565b50602082015181600201906002610c23929190612790565b505050604082015181600601600082015181600001556020820151816001015550505050602082015181600801906002610c5e929190612790565b505050602082015181600a0155604082015181600b0160006101000a81548173ffffffffffffffffffffffffffffffffffffffff021916908373ffffffffffffffffffffffffffffffffffffffff1602179055505050507f77cd7d3cd964bb1589f38a348f5e30078d5b599630eb9731a9ce218840f8e55260405160405180910390a1505050565b6000610d2f600460008473ffffffffffffffffffffffffffffffffffffffff1673ffffffffffffffffffffffffffffffffffffffff1681526020019081526020016000206118a5565b9050919050565b600080905060008090505b601580549050811015610f63578373ffffffffffffffffffffffffffffffffffffffff16601582815481101515610d7457fe5b90600052602060002090600c0201600b0160009054906101000a900473ffffffffffffffffffffffffffffffffffffffff1673ffffffffffffffffffffffffffffffffffffffff161415610f565760166000601583815481101515610dd557fe5b90600052602060002090600c0201600a0154815260200190815260200160002060009054906101000a900460ff161515610f5557601360009054906101000a900473ffffffffffffffffffffffffffffffffffffffff1673ffffffffffffffffffffffffffffffffffffffff166343cd76fc601583815481101515610e5657fe5b90600052602060002090600c0201600001600001601584815481101515610e7957fe5b90600052602060002090600c02016000016008016040518363ffffffff1660e01b8152600401610eaa9291906136a9565b60206040518083038186803b158015610ec257600080fd5b505afa158015610ed6573d6000803e3d6000fd5b505050506040513d601f19601f82011682018060405250610efa9190810190612e4b565b15610f5457600160166000601584815481101515610f1457fe5b90600052602060002090600c0201600a0154815260200190815260200160002060006101000a81548160ff02191690831515021790555060019150610f63565b5b5b8080600101915050610d41565b50801515610fa6576040517f08c379a0000000000000000000000000000000000000000000000000000000008152600401610f9d90613609565b60405180910390fd5b610fb083836109e4565b50505050565b606060108054600181600116156101000203166002900480601f01602080910402602001604051908101604052809291908181526020018280546001816001161561010002031660029004801561104e5780601f106110235761010080835404028352916020019161104e565b820191906000526020600020905b81548152906001019060200180831161103157829003601f168201915b5050505050905090565b3373ffffffffffffffffffffffffffffffffffffffff168273ffffffffffffffffffffffffffffffffffffffff161415151561109357600080fd5b80600560003373ffffffffffffffffffffffffffffffffffffffff1673ffffffffffffffffffffffffffffffffffffffff16815260200190815260200160002060008473ffffffffffffffffffffffffffffffffffffffff1673ffffffffffffffffffffffffffffffffffffffff16815260200190815260200160002060006101000a81548160ff0219169083151502179055508173ffffffffffffffffffffffffffffffffffffffff163373ffffffffffffffffffffffffffffffffffffffff167f17307eab39ab6107e8899845ad3d59bd9653f200f220920489ca2b5937696c3183604051611184919061354c565b60405180910390a35050565b61119b8484846108a7565b6111a7848484846118b3565b15156111b257600080fd5b50505050565b6000809054906101000a900473ffffffffffffffffffffffffffffffffffffffff1673ffffffffffffffffffffffffffffffffffffffff163373ffffffffffffffffffffffffffffffffffffffff16141515611249576040517f08c379a0000000000000000000000000000000000000000000000000000000008152600401611240906135a9565b60405180910390fd5b80600060146101000a81548160ff021916908315150217905550600060149054906101000a900460ff16156112a9577f9e87fac88ff661f02d44f95383c817fece4bce600a3dab7a54406878b965e75260405160405180910390a16112d6565b7fa45f47fdea8a1efdd9029a5691c7f759c32b7c698632b563573e155625d1693360405160405180910390a15b50565b60606112e4826119cc565b15156112ef57600080fd5b601260008381526020019081526020016000208054600181600116156101000203166002900480601f0160208091040260200160405190810160405280929190818152602001828054600181600116156101000203166002900480156113965780601f1061136b57610100808354040283529160200191611396565b820191906000526020600020905b81548152906001019060200180831161137957829003601f168201915b50505050509050919050565b60008060009054906101000a900473ffffffffffffffffffffffffffffffffffffffff16905090565b606060118054600181600116156101000203166002900480601f0160208091040260200160405190810160405280929190818152602001828054600181600116156101000203166002900480156114635780601f1061143857610100808354040283529160200191611463565b820191906000526020600020905b81548152906001019060200180831161144657829003601f168201915b5050505050905090565b6000600560008473ffffffffffffffffffffffffffffffffffffffff1673ffffffffffffffffffffffffffffffffffffffff16815260200190815260200160002060008373ffffffffffffffffffffffffffffffffffffffff1673ffffffffffffffffffffffffffffffffffffffff16815260200190815260200160002060009054906101000a900460ff16905092915050565b6000809054906101000a900473ffffffffffffffffffffffffffffffffffffffff1673ffffffffffffffffffffffffffffffffffffffff163373ffffffffffffffffffffffffffffffffffffffff16141515611592576040517f08c379a0000000000000000000000000000000000000000000000000000000008152600401611589906135a9565b60405180910390fd5b600073ffffffffffffffffffffffffffffffffffffffff168173ffffffffffffffffffffffffffffffffffffffff1614151515611604576040517f08c379a00000000000000000000000000000000000000000000000000000000081526004016115fb90613689565b60405180910390fd5b806000806101000a81548173ffffffffffffffffffffffffffffffffffffffff021916908373ffffffffffffffffffffffffffffffffffffffff1602179055507f04dba622d284ed0014ee4b9a6a68386be1a4c08a4913ae272de89199cc6861636000809054906101000a900473ffffffffffffffffffffffffffffffffffffffff1660405161169491906134e5565b60405180910390a150565b6000806116ab83610aec565b90508073ffffffffffffffffffffffffffffffffffffffff168473ffffffffffffffffffffffffffffffffffffffff16148061171a57508373ffffffffffffffffffffffffffffffffffffffff1661170284610647565b73ffffffffffffffffffffffffffffffffffffffff16145b8061172b575061172a818561146d565b5b91505092915050565b61173f838383611a3e565b6117498382611c9c565b6117538282611e40565b505050565b6117628282611f07565b61176c8282611e40565b611775816120bd565b5050565b611782816119cc565b15156117c3576040517f08c379a00000000000000000000000000000000000000000000000000000000081526004016117ba90613669565b60405180910390fd5b60606117ce82612109565b9050606061187660118054600181600116156101000203166002900480601f01602080910402602001604051908101604052809291908181526020018280546001816001161561010002031660029004801561186b5780601f106118405761010080835404028352916020019161186b565b820191906000526020600020905b81548152906001019060200180831161184e57829003601f168201915b505050505083612243565b90508060126000858152602001908152602001600020908051906020019061189f9291906127d0565b50505050565b600081600001549050919050565b60006118d48473ffffffffffffffffffffffffffffffffffffffff16612287565b15156118e357600190506119c4565b60008473ffffffffffffffffffffffffffffffffffffffff1663150b7a02338887876040518563ffffffff1660e01b81526004016119249493929190613500565b602060405180830381600087803b15801561193e57600080fd5b505af1158015611952573d6000803e3d6000fd5b505050506040513d601f19601f820116820180604052506119769190810190612f70565b905063150b7a0260e01b7bffffffffffffffffffffffffffffffffffffffffffffffffffffffff1916817bffffffffffffffffffffffffffffffffffffffffffffffffffffffff1916149150505b949350505050565b6000806002600084815260200190815260200160002060009054906101000a900473ffffffffffffffffffffffffffffffffffffffff169050600073ffffffffffffffffffffffffffffffffffffffff168173ffffffffffffffffffffffffffffffffffffffff161415915050919050565b8273ffffffffffffffffffffffffffffffffffffffff166002600083815260200190815260200160002060009054906101000a900473ffffffffffffffffffffffffffffffffffffffff1673ffffffffffffffffffffffffffffffffffffffff16141515611ae1576040517f08c379a0000000000000000000000000000000000000000000000000000000008152600401611ad890613629565b60405180910390fd5b600073ffffffffffffffffffffffffffffffffffffffff168273ffffffffffffffffffffffffffffffffffffffff1614151515611b53576040517f08c379a0000000000000000000000000000000000000000000000000000000008152600401611b4a906135e9565b60405180910390fd5b611b5c816122d2565b611ba3600460008573ffffffffffffffffffffffffffffffffffffffff1673ffffffffffffffffffffffffffffffffffffffff168152602001908152602001600020612392565b611bea600460008473ffffffffffffffffffffffffffffffffffffffff1673ffffffffffffffffffffffffffffffffffffffff1681526020019081526020016000206123b5565b816002600083815260200190815260200160002060006101000a81548173ffffffffffffffffffffffffffffffffffffffff021916908373ffffffffffffffffffffffffffffffffffffffff160217905550808273ffffffffffffffffffffffffffffffffffffffff168473ffffffffffffffffffffffffffffffffffffffff167fddf252ad1be2c89b69c2b068fc378daa952ba7f163c4a11628f55a4df523b3ef60405160405180910390a4505050565b6000611cf46001600660008673ffffffffffffffffffffffffffffffffffffffff1673ffffffffffffffffffffffffffffffffffffffff168152602001908152602001600020805490506123cb90919063ffffffff16565b90506000600760008481526020019081526020016000205490508181141515611de7576000600660008673ffffffffffffffffffffffffffffffffffffffff1673ffffffffffffffffffffffffffffffffffffffff16815260200190815260200160002083815481101515611d6557fe5b9060005260206000200154905080600660008773ffffffffffffffffffffffffffffffffffffffff1673ffffffffffffffffffffffffffffffffffffffff16815260200190815260200160002083815481101515611dbf57fe5b9060005260206000200181905550816007600083815260200190815260200160002081905550505b600660008573ffffffffffffffffffffffffffffffffffffffff1673ffffffffffffffffffffffffffffffffffffffff168152602001908152602001600020805480919060019003611e399190612850565b5050505050565b600660008373ffffffffffffffffffffffffffffffffffffffff1673ffffffffffffffffffffffffffffffffffffffff168152602001908152602001600020805490506007600083815260200190815260200160002081905550600660008373ffffffffffffffffffffffffffffffffffffffff1673ffffffffffffffffffffffffffffffffffffffff1681526020019081526020016000208190806001815401808255809150509060018203906000526020600020016000909192909190915055505050565b600073ffffffffffffffffffffffffffffffffffffffff168273ffffffffffffffffffffffffffffffffffffffff1614151515611f79576040517f08c379a0000000000000000000000000000000000000000000000000000000008152600401611f70906135e9565b60405180910390fd5b611f82816119cc565b151515611fc4576040517f08c379a0000000000000000000000000000000000000000000000000000000008152600401611fbb90613589565b60405180910390fd5b816002600083815260200190815260200160002060006101000a81548173ffffffffffffffffffffffffffffffffffffffff021916908373ffffffffffffffffffffffffffffffffffffffff16021790555061205d600460008473ffffffffffffffffffffffffffffffffffffffff1673ffffffffffffffffffffffffffffffffffffffff1681526020019081526020016000206123b5565b808273ffffffffffffffffffffffffffffffffffffffff16600073ffffffffffffffffffffffffffffffffffffffff167fddf252ad1be2c89b69c2b068fc378daa952ba7f163c4a11628f55a4df523b3ef60405160405180910390a45050565b6008805490506009600083815260200190815260200160002081905550600881908060018154018082558091505090600182039060005260206000200160009091929091909150555050565b60606000821415612151576040518060400160405280600181526020017f3000000000000000000000000000000000000000000000000000000000000000815250905061223e565b600082905060005b60008214151561217f578080600101915050600a8281151561217757fe5b049150612159565b6060816040519080825280601f01601f1916602001820160405280156121b45781602001600182028038833980820191505090505b50905060006001830390505b60008614151561223657600a868115156121d657fe5b0660300160f81b8282806001900393508151811015156121f257fe5b9060200101907effffffffffffffffffffffffffffffffffffffffffffffffffffffffffffff1916908160001a905350600a8681151561222e57fe5b0495506121c0565b819450505050505b919050565b606061227f8383604051806020016040528060008152506040518060200160405280600081525060405180602001604052806000815250612415565b905092915050565b60008060007fc5d2460186f7233c927e7db2dcc703c0e500b653ca82273b7bfad8045d85a47060001b9050833f91508082141580156122c957506000801b8214155b92505050919050565b600073ffffffffffffffffffffffffffffffffffffffff166003600083815260200190815260200160002060009054906101000a900473ffffffffffffffffffffffffffffffffffffffff1673ffffffffffffffffffffffffffffffffffffffff1614151561238f5760006003600083815260200190815260200160002060006101000a81548173ffffffffffffffffffffffffffffffffffffffff021916908373ffffffffffffffffffffffffffffffffffffffff1602179055505b50565b6123aa600182600001546123cb90919063ffffffff16565b816000018190555050565b6001816000016000828254019250508190555050565b600061240d83836040518060400160405280601e81526020017f536166654d6174683a207375627472616374696f6e206f766572666c6f7700008152506126f5565b905092915050565b6060808690506060869050606086905060608690506060869050606081518351855187518951010101016040519080825280601f01601f1916602001820160405280156124715781602001600182028038833980820191505090505b509050606081905060008090506000809050600090505b88518110156124fc57888181518110151561249f57fe5b90602001015160f81c60f81b83838060010194508151811015156124bf57fe5b9060200101907effffffffffffffffffffffffffffffffffffffffffffffffffffffffffffff1916908160001a9053508080600101915050612488565b600090505b875181101561257557878181518110151561251857fe5b90602001015160f81c60f81b838380600101945081518110151561253857fe5b9060200101907effffffffffffffffffffffffffffffffffffffffffffffffffffffffffffff1916908160001a9053508080600101915050612501565b600090505b86518110156125ee57868181518110151561259157fe5b90602001015160f81c60f81b83838060010194508151811015156125b157fe5b9060200101907effffffffffffffffffffffffffffffffffffffffffffffffffffffffffffff1916908160001a905350808060010191505061257a565b600090505b855181101561266757858181518110151561260a57fe5b90602001015160f81c60f81b838380600101945081518110151561262a57fe5b9060200101907effffffffffffffffffffffffffffffffffffffffffffffffffffffffffffff1916908160001a90535080806001019150506125f3565b600090505b84518110156126e057848181518110151561268357fe5b90602001015160f81c60f81b83838060010194508151811015156126a357fe5b9060200101907effffffffffffffffffffffffffffffffffffffffffffffffffffffffffffff1916908160001a905350808060010191505061266c565b82995050505050505050505095945050505050565b6000838311158290151561273f576040517f08c379a00000000000000000000000000000000000000000000000000000000081526004016127369190613567565b60405180910390fd5b5060008385039050809150509392505050565b60405180610180016040528061276661287c565b815260200160008152602001600073ffffffffffffffffffffffffffffffffffffffff1681525090565b82600281019282156127bf579160200282015b828111156127be5782518255916020019190600101906127a3565b5b5090506127cc91906128a3565b5090565b828054600181600116156101000203166002900490600052602060002090601f016020900481019282601f1061281157805160ff191683800117855561283f565b8280016001018555821561283f579182015b8281111561283e578251825591602001919060010190612823565b5b50905061284c91906128a3565b5090565b8154818355818111156128775781836000526020600020918201910161287691906128a3565b5b505050565b6040518061014001604052806128906128c8565b815260200161289d6128fc565b81525090565b6128c591905b808211156128c15760008160009055506001016128a9565b5090565b90565b6040518061010001604052806128dc61291e565b81526020016128e9612938565b81526020016128f661291e565b81525090565b6040518060400160405280600290602082028038833980820191505090505090565b604051806040016040528060008152602001600081525090565b604051806080016040528061294b6128fc565b81526020016129586128fc565b81525090565b600061296a8235613870565b905092915050565b600082601f830112151561298557600080fd5b60026129986129938261371c565b6136ef565b915081838560208402820111156129ae57600080fd5b60005b838110156129de57816129c48882612c67565b8452602084019350602083019250506001810190506129b1565b5050505092915050565b600082601f83011215156129fb57600080fd5b6002612a0e612a098261373e565b6136ef565b91508183856020840282011115612a2457600080fd5b60005b83811015612a545781612a3a8882612c67565b845260208401935060208301925050600181019050612a27565b5050505092915050565b6000612a6a8235613882565b905092915050565b6000612a7e8251613882565b905092915050565b6000612a92823561388e565b905092915050565b6000612aa68235613898565b905092915050565b6000612aba8251613898565b905092915050565b600082601f8301121515612ad557600080fd5b8135612ae8612ae382613760565b6136ef565b91508082526020830160208301858383011115612b0457600080fd5b612b0f838284613924565b50505092915050565b600082601f8301121515612b2b57600080fd5b8135612b3e612b398261378c565b6136ef565b91508082526020830160208301858383011115612b5a57600080fd5b612b65838284613924565b50505092915050565b600060408284031215612b8057600080fd5b612b8a60406136ef565b90506000612b9a84828501612c67565b6000830152506020612bae84828501612c67565b60208301525092915050565b600060808284031215612bcc57600080fd5b612bd660406136ef565b90506000612be684828501612972565b6000830152506040612bfa84828501612972565b60208301525092915050565b60006101008284031215612c1957600080fd5b612c2360606136ef565b90506000612c3384828501612b6e565b6000830152506040612c4784828501612bba565b60208301525060c0612c5b84828501612b6e565b60408301525092915050565b6000612c7382356138e4565b905092915050565b600060208284031215612c8d57600080fd5b6000612c9b8482850161295e565b91505092915050565b60008060408385031215612cb757600080fd5b6000612cc58582860161295e565b9250506020612cd68582860161295e565b9150509250929050565b600080600060608486031215612cf557600080fd5b6000612d038682870161295e565b9350506020612d148682870161295e565b9250506040612d2586828701612c67565b9150509250925092565b60008060008060808587031215612d4557600080fd5b6000612d538782880161295e565b9450506020612d648782880161295e565b9350506040612d7587828801612c67565b925050606085013567ffffffffffffffff811115612d9257600080fd5b612d9e87828801612ac2565b91505092959194509250565b60008060408385031215612dbd57600080fd5b6000612dcb8582860161295e565b9250506020612ddc85828601612a5e565b9150509250929050565b60008060408385031215612df957600080fd5b6000612e078582860161295e565b9250506020612e1885828601612c67565b9150509250929050565b600060208284031215612e3457600080fd5b6000612e4284828501612a5e565b91505092915050565b600060208284031215612e5d57600080fd5b6000612e6b84828501612a72565b91505092915050565b60008060408385031215612e8757600080fd5b6000612e9585828601612a86565b925050602083013567ffffffffffffffff811115612eb257600080fd5b612ebe85828601612b18565b9150509250929050565b600080600060608486031215612edd57600080fd5b6000612eeb86828701612a86565b935050602084013567ffffffffffffffff811115612f0857600080fd5b612f1486828701612b18565b925050604084013567ffffffffffffffff811115612f3157600080fd5b612f3d86828701612ac2565b9150509250925092565b600060208284031215612f5957600080fd5b6000612f6784828501612a9a565b91505092915050565b600060208284031215612f8257600080fd5b6000612f9084828501612aae565b91505092915050565b6000806101408385031215612fad57600080fd5b6000612fbb85828601612c06565b925050610100612fcd858286016129e8565b9150509250929050565b600060208284031215612fe957600080fd5b6000612ff784828501612c67565b91505092915050565b600061300c83836134c7565b60208301905092915050565b613021816138ee565b82525050565b61303081613828565b82525050565b61303f816137c2565b61304981846137f0565b9250613054826137b8565b60005b828110156130825761306a858354613000565b9450613075826137e3565b9150600181019050613057565b5050505050565b613092816137c2565b61309c81846137fb565b92506130a7826137b8565b60005b828110156130d5576130bd858354613000565b94506130c8826137e3565b91506001810190506130aa565b5050505050565b6130e58161383a565b82525050565b60006130f6826137cd565b6131008185613806565b9350613110818560208601613933565b61311981613966565b840191505092915050565b600061312f826137d8565b6131398185613817565b9350613149818560208601613933565b61315281613966565b840191505092915050565b600061316a601b83613817565b91507f54686520746f6b656e20494420616c72656164792065786973747300000000006000830152602082019050919050565b60006131aa602083613817565b91507f43616c6c6572206973206e6f742074686520636f6e7472616374206f776e65726000830152602082019050919050565b60006131ea601c83613817565b91507f5468652073656e646572206973206e6f7420617574686f72697a6564000000006000830152602082019050919050565b600061322a601883613817565b91507f5468652061646472657373206973206e6f742076616c696400000000000000006000830152602082019050919050565b600061326a602883613817565b91507f546865206164647265737320686173206e6f2073656e6420612076616c69642060008301527f736f6c7574696f6e0000000000000000000000000000000000000000000000006020830152604082019050919050565b60006132d0601c83613817565b91507f5468652061646472657373206973206e6f7420746865206f776e6572000000006000830152602082019050919050565b6000613310602c83613817565b91507f54686520616464726573732063616e206e6f74206265207468652073616d652060008301527f6f6620746865206f776e657200000000000000000000000000000000000000006020830152604082019050919050565b6000613376601c83613817565b91507f54686520746f6b656e20494420646f6573206e6f7420657869737473000000006000830152602082019050919050565b60006133b6602983613817565b91507f5468652061646472657373206f6620746865206e6577206f776e65722069732060008301527f6e6f742076616c696400000000000000000000000000000000000000000000006020830152604082019050919050565b60408201600080830154905061342481613977565b61343160008601826134c7565b506001830154905061344281613977565b61344f60208601826134c7565b5050505050565b60808201600080830161346c6000860182613036565b506002830161347e6040860182613036565b5050505050565b6101008201600080830161349c600086018261340f565b50600283016134ae6040860182613456565b50600683016134c060c086018261340f565b5050505050565b6134d081613866565b82525050565b6134df81613866565b82525050565b60006020820190506134fa6000830184613027565b92915050565b60006080820190506135156000830187613018565b6135226020830186613027565b61352f60408301856134d6565b818103606083015261354181846130eb565b905095945050505050565b600060208201905061356160008301846130dc565b92915050565b600060208201905081810360008301526135818184613124565b905092915050565b600060208201905081810360008301526135a28161315d565b9050919050565b600060208201905081810360008301526135c28161319d565b9050919050565b600060208201905081810360008301526135e2816131dd565b9050919050565b600060208201905081810360008301526136028161321d565b9050919050565b600060208201905081810360008301526136228161325d565b9050919050565b60006020820190508181036000830152613642816132c3565b9050919050565b6000602082019050818103600083015261366281613303565b9050919050565b6000602082019050818103600083015261368281613369565b9050919050565b600060208201905081810360008301526136a2816133a9565b9050919050565b6000610140820190506136bf6000830185613485565b6136cd610100830184613089565b9392505050565b60006020820190506136e960008301846134d6565b92915050565b6000604051905081810181811067ffffffffffffffff8211171561371257600080fd5b8060405250919050565b600067ffffffffffffffff82111561373357600080fd5b602082029050919050565b600067ffffffffffffffff82111561375557600080fd5b602082029050919050565b600067ffffffffffffffff82111561377757600080fd5b601f19601f8301169050602081019050919050565b600067ffffffffffffffff8211156137a357600080fd5b601f19601f8301169050602081019050919050565b6000819050919050565b600060029050919050565b600081519050919050565b600081519050919050565b6000600182019050919050565b600081905092915050565b600081905092915050565b600082825260208201905092915050565b600082825260208201905092915050565b600061383382613846565b9050919050565b60008115159050919050565b600073ffffffffffffffffffffffffffffffffffffffff82169050919050565b6000819050919050565b600061387b826138c4565b9050919050565b60008115159050919050565b6000819050919050565b60007fffffffff0000000000000000000000000000000000000000000000000000000082169050919050565b600073ffffffffffffffffffffffffffffffffffffffff82169050919050565b6000819050919050565b60006138f982613900565b9050919050565b600061390b82613912565b9050919050565b600061391d82613846565b9050919050565b82818337600083830152505050565b60005b83811015613951578082015181840152602081019050613936565b83811115613960576000848401525b50505050565b6000601f19601f8301169050919050565b60008160001c905091905056fea265627a7a72305820d1328a681d6ea691e332fc3ab02d491b6efb9d8d778d68cc67232eb590c51df36c6578706572696d656e74616cf50037608060405234801561001057600080fd5b5061113f806100206000396000f3fe608060405234801561001057600080fd5b506004361061002b5760003560e01c806343cd76fc14610030575b600080fd5b61004a60048036036100459190810190611016565b610060565b6040516100579190611063565b60405180910390f35b6000606060026040519080825280602002602001820160405280156100945781602001602082028038833980820191505090505b50905060008090505b60028110156100e25783816002811015156100b457fe5b602002015182828151811015156100c757fe5b9060200190602002018181525050808060010191505061009d565b5060006100ef828661010b565b14156100ff576001915050610105565b60009150505b92915050565b6000807f30644e72e131a029b85045b68181585d2833e84879b9709143e1f593f00000019050610139610cf3565b610141610293565b9050806080015151600186510114151561015a57600080fd5b610162610d3b565b6040518060400160405280600081526020016000815250905060008090505b86518110156102065783878281518110151561019957fe5b906020019060200201511015156101af57600080fd5b6101f7826101f28560800151600185018151811015156101cb57fe5b906020019060200201518a858151811015156101e357fe5b906020019060200201516106ed565b610787565b91508080600101915050610181565b5061022d818360800151600081518110151561021e57fe5b90602001906020020151610787565b90506102738560000151866020015161024584610842565b85604001516102578a60400151610842565b87606001516102698960000151610842565b89602001516108de565b1515610285576001935050505061028d565b600093505050505b92915050565b61029b610cf3565b60405180604001604052807f2a7787196865dcfc6d6bfe7541c4bc8bf039bdc76b928e7f2050db3ded08eaf481526020017f156e6f6475968ce461d17ef0021b204f3ce43154a82b3f8a1d56eb46afbbec7d8152508160000181905250604051806040016040528060405180604001604052807f1cb36ba1b77f067bfc4806cd33137bd007ad9b79f1fd6d7a0fe536c54d7ae95c81526020017f2e689973851d2023e68b5527ac381fc391870df2d4068458d4b55f15f212e261815250815260200160405180604001604052807f2d63b1e2d6dbc3a62894e453ac4c665eacfe6d332a0afd8cdddf24abb3b7b0e881526020017f145cfad3acd77578fbb095c90e4f3f08db0f5970da6cbbad3d40260d4840e3018152508152508160200181905250604051806040016040528060405180604001604052807f2b4f7f80aaeb1e8d0ab89c4c7248a20160da82e7a15556c3cc16033b76121a7881526020017f0edfe7aacbd02d06b83dd45cb88cd3a419a36373e86b0255f37f69ef365479bf815250815260200160405180604001604052807f2fa4c6314676a92523409b241037df6b9040c1ee0cd9612d1b78de4843cbabc481526020017f2ca9284b8f5da9f6cda701bb6b842d8c93b1462ef217492fd61633ed4718de0e8152508152508160400181905250604051806040016040528060405180604001604052807f2e9540c92bfe2fd148336b9da7950c1a0f87745db48e376fe1b8c5ce64d6042381526020017f2338e1aba8367b21284256e71d238171b08b3eaa617720892b979ac70ba28eec815250815260200160405180604001604052807f2fabf683507ff497225ff413ce5bf216fa6849ed87d44bd4743398952164369e81526020017f1c45ac7aae7d542cd13fabe5ad94c521ecb6de9887407c5cd55efcc8c869ab5b8152508152508160600181905250600360405190808252806020026020018201604052801561058257816020015b61056f610d55565b8152602001906001900390816105675790505b50816080018190525060405180604001604052807f03cd03eebc60d941214d2e726b0215352a33089370a163d1b43d8b91f899c41f81526020017f04645c8702e901acfd94a4120f66d2407aa5f49f4956cdf4eeff1db9ad645fd4815250816080015160008151811015156105f357fe5b9060200190602002018190525060405180604001604052807f08b173c0efb067e732242af9547d67a88bb4d6461f8ead8a376c0bbe5b58539c81526020017f0f148c33ed5c20fe86ed8aaf24f0bd3abe98563d15037e111a87db797d6f89258152508160800151600181518110151561066857fe5b9060200190602002018190525060405180604001604052807f117fe2f6d2bb0ca53e0e197a7a968d8380e6277056236c03eb766d7f05c87e1881526020017f12a5244cf8828d11ae4328417c52f86498eb6e69237b68e10b520dbc1b6be3bc815250816080015160028151811015156106dd57fe5b9060200190602002018190525090565b6106f5610d3b565b6106fd610d6f565b836000015181600060038110151561071157fe5b602002018181525050836020015181600160038110151561072e57fe5b6020020181815250508281600260038110151561074757fe5b602002018181525050600060608360808460076107d05a03fa9050806000811461077057610772565bfe5b5080151561077f57600080fd5b505092915050565b61078f610d3b565b610797610d91565b83600001518160006004811015156107ab57fe5b60200201818152505083602001518160016004811015156107c857fe5b60200201818152505082600001518160026004811015156107e557fe5b602002018181525050826020015181600360048110151561080257fe5b602002018181525050600060608360c08460066107d05a03fa9050806000811461082b5761082d565bfe5b5080151561083a57600080fd5b505092915050565b61084a610d3b565b60007f30644e72e131a029b85045b68181585d97816a916871ca8d3c208c16d87cfd47905060008360000151148015610887575060008360200151145b156108ab5760405180604001604052806000815260200160008152509150506108d9565b6040518060400160405280846000015181526020018285602001518115156108cf57fe5b0683038152509150505b919050565b60006060600460405190808252806020026020018201604052801561091d57816020015b61090a610d55565b8152602001906001900390816109025790505b5090506060600460405190808252806020026020018201604052801561095d57816020015b61094a610db3565b8152602001906001900390816109425790505b5090508a82600081518110151561097057fe5b906020019060200201819052508882600181518110151561098d57fe5b90602001906020020181905250868260028151811015156109aa57fe5b90602001906020020181905250848260038151811015156109c757fe5b90602001906020020181905250898160008151811015156109e457fe5b9060200190602002018190525087816001815181101515610a0157fe5b9060200190602002018190525085816002815181101515610a1e57fe5b9060200190602002018190525083816003815181101515610a3b57fe5b90602001906020020181905250610a528282610a62565b9250505098975050505050505050565b600081518351141515610a7457600080fd5b6000835190506000600682029050606081604051908082528060200260200182016040528015610ab35781602001602082028038833980820191505090505b50905060008090505b83811015610c91578681815181101515610ad257fe5b90602001906020020151600001518260006006840201815181101515610af457fe5b90602001906020020181815250508681815181101515610b1057fe5b90602001906020020151602001518260016006840201815181101515610b3257fe5b90602001906020020181815250508581815181101515610b4e57fe5b90602001906020020151600001516001600281101515610b6a57fe5b60200201518260026006840201815181101515610b8357fe5b90602001906020020181815250508581815181101515610b9f57fe5b90602001906020020151600001516000600281101515610bbb57fe5b60200201518260036006840201815181101515610bd457fe5b90602001906020020181815250508581815181101515610bf057fe5b90602001906020020151602001516001600281101515610c0c57fe5b60200201518260046006840201815181101515610c2557fe5b90602001906020020181815250508581815181101515610c4157fe5b90602001906020020151602001516000600281101515610c5d57fe5b60200201518260056006840201815181101515610c7657fe5b90602001906020020181815250508080600101915050610abc565b50610c9a610dd9565b6000602082602086026020860160086107d05a03fa90508060008114610cbf57610cc1565bfe5b50801515610cce57600080fd5b6000826000600181101515610cdf57fe5b602002015114159550505050505092915050565b604051806101e00160405280610d07610d55565b8152602001610d14610db3565b8152602001610d21610db3565b8152602001610d2e610db3565b8152602001606081525090565b604051806040016040528060008152602001600081525090565b604051806040016040528060008152602001600081525090565b6040518060600160405280600390602082028038833980820191505090505090565b6040518060800160405280600490602082028038833980820191505090505090565b6040518060800160405280610dc6610dfb565b8152602001610dd3610dfb565b81525090565b6040518060200160405280600190602082028038833980820191505090505090565b6040518060400160405280600290602082028038833980820191505090505090565b600082601f8301121515610e3057600080fd5b6002610e43610e3e826110ab565b61107e565b91508183856020840282011115610e5957600080fd5b60005b83811015610e895781610e6f8882611002565b845260208401935060208301925050600181019050610e5c565b5050505092915050565b600082601f8301121515610ea657600080fd5b6002610eb9610eb4826110cd565b61107e565b91508183856020840282011115610ecf57600080fd5b60005b83811015610eff5781610ee58882611002565b845260208401935060208301925050600181019050610ed2565b5050505092915050565b600060408284031215610f1b57600080fd5b610f25604061107e565b90506000610f3584828501611002565b6000830152506020610f4984828501611002565b60208301525092915050565b600060808284031215610f6757600080fd5b610f71604061107e565b90506000610f8184828501610e1d565b6000830152506040610f9584828501610e1d565b60208301525092915050565b60006101008284031215610fb457600080fd5b610fbe606061107e565b90506000610fce84828501610f09565b6000830152506040610fe284828501610f55565b60208301525060c0610ff684828501610f09565b60408301525092915050565b600061100e82356110fb565b905092915050565b600080610140838503121561102a57600080fd5b600061103885828601610fa1565b92505061010061104a85828601610e93565b9150509250929050565b61105d816110ef565b82525050565b60006020820190506110786000830184611054565b92915050565b6000604051905081810181811067ffffffffffffffff821117156110a157600080fd5b8060405250919050565b600067ffffffffffffffff8211156110c257600080fd5b602082029050919050565b600067ffffffffffffffff8211156110e457600080fd5b602082029050919050565b60008115159050919050565b600081905091905056fea265627a7a723058203b82e3a54b4185b0cd0b37c9299e0f9963d1d130c15a22e6c1c87741d04922276c6578706572696d656e74616cf5003768747470733a2f2f73332d75732d776573742d322e616d617a6f6e6177732e636f6d2f756461636974792d626c6f636b636861696e2f63617073746f6e652f",
  "source": "pragma solidity >=0.4.21 <0.6.0;\r\npragma experimental ABIEncoderV2;\r\n\r\nimport \"./Verifier.sol\";\r\nimport \"./ERC721Mintable.sol\";\r\n\r\n\r\n// TODO define another contract named SolnSquareVerifier that inherits from your ERC721Mintable class\r\ncontract SolnSquareVerifier is RealEstateMarket {\r\n    using Pairing for *;\r\n\r\n    // TODO define a contract call to the zokrates generated solidity contract <Verifier> or <renamedVerifier>\r\n    Verifier verifierContract = new Verifier();\r\n\r\n    uint256 solCount;\r\n\r\n    struct Solution {\r\n        Verifier.Proof   proof;\r\n        uint[2]          input;\r\n    }\r\n\r\n    // TODO define a solutions struct that can hold an index & an address\r\n    struct UserSolution {\r\n        Solution solution;\r\n        uint     index;\r\n        address  owner;\r\n    }\r\n\r\n    // TODO define an array of the above struct\r\n    UserSolution[] solutionsStorage;\r\n\r\n    // TODO define a mapping to store unique solutions submitted\r\n    mapping(uint => bool) private usedSolns;\r\n\r\n    // TODO Create an event to emit when a solution is added\r\n    event SolutionAdded();\r\n\r\n    constructor() public\r\n    {\r\n        solCount = 0;\r\n    }\r\n\r\n    // TODO Create a function to add the solutions to the array and emit the event\r\n    function addSolution(Verifier.Proof memory proof, uint[2] memory input) public\r\n    {\r\n        solCount++;\r\n        UserSolution memory newSolution = UserSolution(Solution(proof, input), solCount, msg.sender);\r\n        solutionsStorage.push(newSolution);\r\n        emit SolutionAdded();\r\n    }\r\n\r\n    // TODO Create a function to mint new NFT only after the solution has been verified\r\n    //  - make sure the solution is unique (has not been used before)\r\n    //  - make sure you handle metadata as well as tokenSuplly\r\n    function mintToken(address to, uint256 tokenId) public\r\n    {\r\n        bool foundValid = false;\r\n\r\n        for(uint i = 0; i < solutionsStorage.length; i++) {\r\n            if(solutionsStorage[i].owner == to) {\r\n                if(!usedSolns[solutionsStorage[i].index]) {\r\n                    if(verifierContract.verifyTx(solutionsStorage[i].solution.proof, solutionsStorage[i].solution.input)) {\r\n                        usedSolns[solutionsStorage[i].index] = true;\r\n                        foundValid = true;\r\n                        break;\r\n                    }\r\n                }\r\n            }\r\n        }\r\n        require(foundValid, \"The address has no send a valid solution\");\r\n        super.mint(to, tokenId);\r\n    }\r\n}\r\n\r\n  \r\n\r\n\r\n\r\n\r\n\r\n\r\n\r\n\r\n\r\n\r\n\r\n\r\n\r\n\r\n\r\n\r\n\r\n\r\n\r\n\r\n\r\n\r\n\r\n\r\n\r\n\r\n",
  "sourcePath": "E:\\Blockchain\\RealEstate\\Blockchain-Capstone\\eth-contracts\\contracts\\SolnSquareVerifier.sol",
  "compiler": {
    "name": "solc",
    "version": "0.5.5+commit.47a71e8f.Emscripten.clang"
  },
  "schemaVersion": "3.4.5",
  "updatedAt": "2022-05-18T03:37:35.989Z",
  "networkType": "ethereum",
  "devdoc": {
    "methods": {
      "isApprovedForAll(address,address)": {
        "details": "Tells whether an operator is approved by a given owner\r",
        "params": {
          "operator": "operator address which you want to query the approval of\r",
          "owner": "owner address which you want to query the approval of\r"
        },
        "return": "bool whether the given operator is approved by the given owner\r"
      },
      "setApprovalForAll(address,bool)": {
        "details": "Sets or unsets the approval of a given operator\r An operator is allowed to transfer all tokens of the sender on their behalf\r",
        "params": {
          "approved": "representing the status of the approval to be set\r",
          "to": "operator address to set the approval\r"
        }
      },
      "supportsInterface(bytes4)": {
        "details": "implement supportsInterface(bytes4) using a lookup table\r"
      },
      "tokenByIndex(uint256)": {
        "details": "Gets the token ID at a given index of all the tokens in this contract\r Reverts if the index is greater or equal to the total number of tokens\r",
        "params": {
          "index": "uint256 representing the index to be accessed of the tokens list\r"
        },
        "return": "uint256 token ID at the given index of the tokens list\r"
      },
      "tokenOfOwnerByIndex(address,uint256)": {
        "details": "Gets the token ID at a given index of the tokens list of the requested owner\r",
        "params": {
          "index": "uint256 representing the index to be accessed of the requested tokens list\r",
          "owner": "address owning the tokens list to be accessed\r"
        },
        "return": "uint256 token ID at the given index of the tokens list owned by the requested address\r"
      },
      "totalSupply()": {
        "details": "Gets the total amount of tokens stored by the contract\r",
        "return": "uint256 representing the total amount of tokens\r"
      }
    }
  },
  "userdoc": {
    "methods": {}
  }
}